:100000000EC028C027C026C025C024C023C022C0DF
:1000100021C020C01FC01EC01DC01CC01BC0112499
:100020001FBECFE5D2E0DEBFCDBF10E0A0E6B0E05E
:10003000EAEDF5E002C005900D92AE38B107D9F7B0
:1000400020E0AEE8B0E001C01D92A839B207E1F7A8
:100050004FD0C1C2D5CFCF93C82F8A3011F48DE0D5
:10006000FADFC09A89EF90E00197F1F700C0000035
:1000700088B38E7388BBE0EDF0E03197F1F720E0B4
:1000800030E08C2F90E0AC01022E02C055954795D0
:100090000A94E2F740FF02C0C09A03C048B34E730F
:1000A00048BBE0EDF0E03197F1F72F5F3F4F28308C
:1000B000310549F7C09A89EF90E00197F1F700C048
:1000C000000080E0CF9108959FEF9DBD96E897BD19
:1000D00091EE90BF8EBD08958CE087B984E886B913
:1000E000369A3699FECF84B125B190E0922B0895CF
:1000F000EF92FF920F931F93CF93DF931F92CDB791
:10010000DEB780E090E052D260938E0070938F0053
:10011000809390009093910080E690E090939500FA
:100120008093940087E187BB80E288BB8EE690E0F5
:1001300009D204B601FE45C014BE00EA1FE0F12C4E
:10014000CBDFBC0180E090E003D120E030E040E86C
:100150005AE38DD19B01AC0160918E0070918F00AC
:1001600080919000909191005ED020E030E04AE7CD
:1001700054E47DD19B01AC0160E070E882E295E43B
:1001800052D020E030E04FE753E471D1B5D0F616FD
:1001900030F48AE0F80E8F2D698396DF69816F1540
:1001A00030F4EE24EA94EF0C8F2D8EDFFE2C89EFD5
:1001B00090E00197F1F700C000000150110909F02B
:1001C000BFCFF89417BA18BA16B813B8379880B5D5
:1001D000816080BD80B5846080BD80B5886080BD51
:1001E00080B5826080BD8FEF80BD14BE81B588610F
:1001F00081BD11BC85B7877E806185BF85B7806270
:1002000085BF889585B7806285BF889585B78F7DC6
:1002100085BF80E090E00F90DF91CF911F910F910B
:10022000FF90EF9008950CD0E7C0DFD040F0D6D01B
:1002300030F021F45F3F19F0C8C0511111C1CBC09B
:10024000ECD098F39923C9F35523B1F3951B550BC3
:10025000BB27AA2762177307840738F09F5F5F4F99
:10026000220F331F441FAA1FA9F334D00E2E3AF0D9
:10027000E0E831D091505040E695001CCAF72AD0F2
:10028000FE2F28D0660F771F881FBB1F2617370742
:100290004807AB07B0E809F0BB0B802D6E2F7F2F0E
:1002A000FF2793585F4F2AF09E3F510568F08DC09D
:1002B000D7C05F3FECF3983EDCF386957795679562
:1002C000B795F7959F5FC9F7880F911D969587950C
:1002D00097F90895E1E0660F771F881FBB1F62172B
:1002E00073078407BA0720F0621B730B840BBA0BE9
:1002F000EE1F88F7E095089598D088F09F5790F00A
:10030000B92F9927B751A0F0D1F0660F771F881F3A
:10031000991F1AF0BA95C9F712C0B13081F09FD079
:10032000B1E008959CC0672F782F8827B85F39F017
:10033000B93FCCF3869577956795B395D9F73EF499
:1003400090958095709561957F4F8F4F9F4F089541
:10035000E89409C097FB3EF490958095709561955F
:100360007F4F8F4F9F4F9923A9F0F92F96E9BB2715
:100370009395F695879577956795B795F111F8CF91
:10038000FAF4BB0F11F460FF1BC06F5F7F4F8F4FFC
:100390009F4F16C0882311F096E911C0772321F0F2
:1003A0009EE8872F762F05C0662371F096E8862F8A
:1003B00070E060E02AF09A95660F771F881FDAF7E1
:1003C000880F9695879597F9089597F99F6780E824
:1003D00070E060E008959FEF80EC089500240A9497
:1003E0001616170618060906089500240A94121610
:1003F0001306140605060895092E0394000C11F443
:10040000882352F0BB0F40F4BF2B11F460FF04C0EF
:100410006F5F7F4F8F4F9F4F089557FD9058440F48
:10042000551F59F05F3F71F04795880F97FB991F53
:1004300061F09F3F79F08795089512161306140610
:10044000551FF2CF4695F1DF08C01616170618069D
:10045000991FF1CF86957105610508940895E89478
:10046000BB2766277727862F972F97F908950AD0FD
:10047000C3CFB4DF28F0B9DF18F0952309F0A5CF7A
:10048000AACFEECFCADFA8F39923D9F35523C9F336
:10049000950F50E0551FAA27EE27FF27BB27002402
:1004A0000894679520F4E20FF31FB41F0A1E220F71
:1004B000331F441FAA1F6695A9F7779530F4F30FF1
:1004C000B41F0A1E121E08F46395330F441FAA1F9F
:1004D000221F769599F7879520F4B40F0A1E121EF5
:1004E000631F440FAA1F221F331F8695A9F7862F6B
:1004F000712D602D11249F5750408AF0E1F0882320
:100500004AF0EE0FFF1FBB1F661F771F881F915019
:100510005040A9F79E3F510570F057CFA1CF5F3FE4
:10052000ECF3983EDCF3869577956795B795F7954C
:10053000E7959F5FC1F7FE2B880F911D96958795D4
:1005400097F908950F931F93CF93DF93E091940051
:10055000F0919500238121FF1FC0082F192FD0E0B3
:10056000C0E0E02FF12F81910E2F1F2F609194009A
:1005700070919500A62FB72F1896ED91FC911997C1
:10058000882331F00995892B61F3DFEFCFEFE9CFB5
:100590008AE00995892B19F08FEF9FEF02C08D2F0C
:1005A0009C2FDF91CF911F910F910895A6E1B0E0AC
:1005B00044E050E002C0DC01CB01FC01E199FECF38
:1005C00006C0FFBBEEBBE09A31960DB20D924150D2
:0A05D0005040B8F70895F894FFCFEB
:1005DA0000000002000000002B00000000000A4991
:1005EA006E73746178204472697665722056322E71
:0E05FA003020696E697469616C697365640014
:00000001FF
